:100000000C94FA000C9416010C9416010C94160131
:100010000C9416010C9416010C9416010C94160104
:100020000C9416010C9416010C9416010C941601F4
:100030000C9416010C9416010C9416010C941601E4
:100040000C9416010C9416010C9416010C941601D4
:100050000C9416010C9416010C9416010C941601C4
:100060000C9416010C9416010C9416010C941601B4
:100070000C9416010C9416010C9416010C941601A4
:100080000C9416010C9416010C9416010C94160194
:100090000C9416010C9416010C9416010C94160184
:1000A0000C9416010C9416010C9416010C94160174
:1000B0000C9416010C9416010C9416010C94160164
:1000C0000C9416010C9416010C9416010C94160154
:1000D0000C9416010C9416010C9416010C94160144
:1000E0000C9416010C9416010C9416010C94160134
:1000F0000C9416010C9416010C9416010C94160124
:100100000C9416010C9416010C9416010C94160113
:100110000C9416010C9416010C9416010C94160103
:100120000C9416010C9416010C9416010C941601F3
:100130000C9416010C9416010C9416010C941601E3
:100140000C9416010C9416010C9416010C941601D3
:100150000C9416010C9416010C9416010C941601C3
:100160000C9416010C9416010C9416010C941601B3
:100170000C9416010C9416010C9416010C941601A3
:100180000C9416010C9416010C9416010C94160193
:100190000C9416010C9416010C9416010C94160183
:1001A0000C9416010C9416010C9416010C94160173
:1001B0000C9416010C9416010C9416010C94160163
:1001C0000C9416010C9416010C9416010C94160153
:1001D0000C9416010C9416010C9416010C94160143
:1001E0000C9416010C9416010C9416010C94160133
:1001F0000C94160111241FBECFEFCDBFDFE2DEBF8E
:1002000018BE19BE1ABE1BBE10E2A0E0B0E2E4EBBD
:10021000F2E000E00BBF02C007900D92A230B107E0
:10022000D9F71BBE0E943B010C9458010C940000AE
:10023000809150008260809350008091510081FF36
:10024000FCCF88ED84BF80914000887F81608093DF
:1002500040000895E0E6F6E088E2808B818B80E440
:100260008093950488E08093910481E080939204C8
:100270008093940408950E9418010E942A019AEF25
:1002800032E540E223E03093960480919404807438
:10029000809394048823C9F38091940483708330FD
:1002A00011F44093050620939304915061F7FFCF1A
:0402B000F894FFCFF0
:0202B4009404B0
:00000001FF
