:100000000C94FA000C941E010C9427090C941E0108
:100010000C941E010C941E010C941E010C941E01E4
:100020000C941E010C941E010C941E010C941E01D4
:100030000C941E010C941E010C941E010C941E01C4
:100040000C941E010C941E010C941E010C941E01B4
:100050000C941E010C941E010C941E010C941E01A4
:100060000C941E010C941E010C941E010C941E0194
:100070000C941E010C941E010C941E010C941E0184
:100080000C941E010C941E010C941E010C941E0174
:100090000C941E010C941E010C941E010C941E0164
:1000A0000C941E010C941E010C941E010C94C909A1
:1000B0000C941E010C941E010C941E010C94B908A2
:1000C0000C941E010C941E010C941E010C941E0134
:1000D0000C941E010C941E010C941E010C941E0124
:1000E0000C941E010C941E010C941E010C941E0114
:1000F0000C941E010C941E010C941E010C941E0104
:100100000C945B090C941E010C941E010C941E01AE
:100110000C941E010C941E010C941E010C941E01E3
:100120000C941E010C941E010C941E010C941E01D3
:100130000C941E010C94CA070C941E010C941E0111
:100140000C941E010C941E010C941E010C943F088B
:100150000C941E010C941E010C941E010C941E01A3
:100160000C941E010C941E010C941E010C941E0193
:100170000C941E010C941E010C941E010C941E0183
:100180000C941E010C941E010C941E010C941E0173
:100190000C941E010C941E010C941E010C941E0163
:1001A0000C941E010C941E010C941E010C941E0153
:1001B0000C941E010C941E010C941E010C941E0143
:1001C0000C941E010C941E010C941E010C941E0133
:1001D0000C941E010C941E010C941E010C941E0123
:1001E0000C941E010C941E010C941E010C941E0113
:1001F0000C941E0111241FBECFEFCDBFDFE2DEBF86
:1002000018BE19BE1ABE1BBE10E2A0E0B0E2E2E8C2
:10021000FFE100E00BBF02C007900D92A432B107CE
:10022000D9F71BBE20E2A4E2B0E201C01D92AA34BD
:10023000B207E1F70E943B0C0C94BF0F0C94000036
:10024000809150008160809350008091510080FF28
:10025000FCCF88ED84BF80914000887F81608093CF
:1002600040000895809150008260809350008091FA
:10027000510081FFFCCF88ED84BF80914000887FD2
:100280008160809340000895E0E6F6E088E3808B8B
:10029000818B88E28093950488E08093910481E0CB
:1002A000809394048FE39CE90197F1F700C000006C
:1002B000089580E7809301060895E0EEF6E08FE36D
:1002C000818380898863808B81898863818B82891F
:1002D0008863828B83898863838B84898863848B1A
:1002E00085898863858B0895880F80939604E091B3
:1002F0001A20F0911B20808186FFFDCF9081892FED
:10030000807194FF05C083E08093930481E0089599
:1003100093E0909393040895982F990F90939604E7
:1003200080E0E0911A20F0911B208417A8F420812E
:1003300026FFFDCF208124FD15C0208124FD08C0AB
:10034000FB01E80FF11D2081209397048F5FE9CF17
:10035000808180FFFDCFE2CF908196FFFDCF93E0BB
:10036000909393040895880F816080939604FB0115
:1003700080E090E050E09A012150310967E0841755
:100380009507BCF4A0911A20B0911B207C9177FFB7
:10039000FDCF7C9174FD0DC070919704719301960F
:1003A000821793071CF410929304E9CF609393048F
:1003B000E6CF0895CF93DF9300D01F92CDB7DEB77D
:1003C00079836A834B8343E0BE016F5F7F4F0E9456
:1003D0008C01833029F080910506806280930506A8
:1003E0002396CDBFDEBFDF91CF9108951F93CF93AA
:1003F000DF9300D01F92CDB7DEB7182F1B82798311
:100400006A8342E0BE016F5F7F4F0E948C018230A1
:1004100049F441E0BE016D5F7F4F812F0E94B3011F
:10042000813029F0809105068062809305068B81DA
:100430002396CDBFDEBFDF91CF911F910895CF935B
:10044000C82F41E067E072E00E94DA0141E068E015
:1004500072E08C2F0E94DA0140E066E970E08C2F98
:100460000E94DA014DEF67E970E08C2F0E94DA01FB
:1004700040E063EE70E08C2F0E94DA0144E064EE0D
:1004800070E08C2F0E94DA0142E065EE70E08C2F64
:100490000E94DA0141E066EE70E08C2F0E94DA01E2
:1004A00043E067EE70E08C2F0E94DA0142E065EFD6
:1004B00070E08C2F0E94DA0145E069ED70E08C2F2E
:1004C0000E94DA014EEC6BED70E08C2F0E94DA0195
:1004D00043E06CED70E08C2F0E94DA0148EF6DED87
:1004E00070E08C2F0E94DA0140E06FE970E08C2F01
:1004F0000E94DA014CE363EA70E08C2F0E94DA017B
:1005000040E067EB70E08C2F0E94DA014CE36BEB6C
:1005100070E08C2F0E94DA0149E062EB70E08C2FD2
:100520000E94DA0149E06AEC70E08C2F0E94DA0147
:1005300041E068E971E08C2F0E94DA0147E160EB4D
:1005400071E08C2F0E94DA0140E06DEA71E08C2F9F
:100550000E94DA0145E06FEF70E08C2F0E94DA0113
:1005600045E060E071E08C2F0E94DA0145E069E926
:1005700071E08C2F0E94DA014BE166EA71E08C2F6A
:100580000E94DA014EE36CEA71E08C2F0E94DA01DE
:100590004FE167EA71E08C2F0E94DA0140E060E3EE
:1005A00070E08C2FCF910C94DA01CF93C82F40E1EB
:1005B00061E170E00E94DA0140E36AE071E08C2FB3
:1005C0000E94DA0146E46FE370E08C2F0E94DA01AA
:1005D0004FEF61E370E08C2F0E94DA0143E660E4A4
:1005E00070E08C2F0E94DA0141E06EE270E08C2F07
:1005F0000E94DA0149E06BE170E08C2F0E94DA0181
:1006000041E36EE370E08C2F0E94DA0144E264E182
:1006100070E08C2FCF910C94DA01CF93C82F8FE329
:100620009FE10197F1F700C0000066E170E08C2FB8
:100630000E94F601813001F141E060E170E08C2F11
:100640000E94DA018FE39FE10197F1F700C00000FB
:1006500066E170E08C2F0E94F601813069F040E085
:1006600060E170E08C2F0E94DA018FE39FE1019737
:10067000F1F700C00000E0CF8C2F0E941F028C2FEA
:100680000E94D50240E066E170E08C2FCF910C947F
:10069000DA01AF92BF92CF92DF92FF920F931F9336
:1006A000CF93DF931F92CDB7DEB7198200E010E041
:1006B00084E2F82ECC24C394D12C0330110531F1FF
:1006C0008091E5065601002E01C0AA0C0A94EAF7B3
:1006D0008A298093E5068FE39FE10197F1F700C037
:1006E000000089E20E94740181110DC089818F5F31
:1006F00089834F2D62E172E089E20E94DA018F2D39
:100700000E940D0302C0A092E606F3940F5F1F4FF4
:100710000630110591F689819981992301F1909113
:1007200005069064909305069FEF29E638E1915005
:1007300020403040E1F700C0000090910606906430
:10074000909306069FEF29E638E191502040304013
:10075000E1F700C00000998191509983DDCF0F909F
:10076000DF91CF911F910F91FF90DF90CF90BF90BD
:10077000AF90089589E20E947401811102C00C9427
:1007800049030895CF93DF93C82F41E068E170E0FB
:100790000E94DA016FE470E08C2F0E94F60182FF64
:1007A000F9CF62E670E08C2F0E94F601D82F47E067
:1007B00065E170E08C2F0E94DA018D2FDF91CF91DF
:1007C0000895CF93DF93CDB7DEB72C97CDBFDEBFB3
:1007D00019861A861B861C861D821E821F82188619
:1007E00019821A821B821C82611138C02091462016
:1007F00030914720821B930B9C01220F331F820FE5
:10080000931F97FD019695958795092E000CAA0BCD
:10081000BB0B8D839E83AF83B88720914620309198
:1008200047208091262090912720281B390B4CE0EF
:10083000429FC001439F900D1124092E000CAA0B6A
:10084000BB0B89839A83AB83BC83809146209091B4
:10085000472080932620909327203AC0613009F0EA
:1008600047C02091482030914920821B930B9C0166
:10087000220F331F820F931F97FD01969595879541
:10088000092E000CAA0BBB0B8D839E83AF83B88708
:100890002091482030914920809128209091292052
:1008A000281B390B4CE0429FC001439F900D11243F
:1008B000092E000CAA0BBB0B89839A83AB83BC83E4
:1008C000809148209091492080932820909329205E
:1008D0008D819E81AF81B88549815A816B817C81F0
:1008E000841B950BA60BB70B89879A87AB87BC87B0
:1008F00089859A85AB85BC85181619061A061B06CC
:100900004CF489859A85AB85BC858D509D4FAF4F42
:10091000BF4F1FC089859A85AB85BC85892B8A2BE3
:100920008B2B49F489859A85AB85BC8587519D4F72
:10093000AF4FBF4F0EC089859A85AB85BC85B7FF89
:100940000CC089859A85AB85BC8586529D4FAF4F7B
:10095000BF4F89879A87AB87BC8789859A85AB8586
:10096000BC8589339440A105B1052CF088E394E05F
:10097000A0E0B0E00DC089859A85AB85BC8586393D
:100980009140A105B10544F486E991E0A0E0B0E012
:1009900089879A87AB87BC8789859A85AB85BC8513
:1009A0002C96CDBFDEBFDF91CF91089581112EC06F
:1009B000E0910A20F0910B202081318120932E209C
:1009C00030932F202091362030913720E0913E2027
:1009D000F0913F20409132205091332060912E20A1
:1009E00070912F20D901AE1BBF0BFD019A0157FF5B
:1009F00002C02F5F3F4F359527952E0F3F1F260FC3
:100A0000371F20932E2030932F202FC0813069F57F
:100A1000E0910820F091092020813181209330203D
:100A2000309331202091382030913920E0914020BE
:100A3000F091412040913420509135206091302038
:100A400070913120D901AE1BBF0BFD019A0157FFF8
:100A500002C02F5F3F4F359527952E0F3F1F260F62
:100A6000371F209330203093312090E0880F991F5A
:100A7000FC01E25DFF4D208131812933344018F0C3
:100A800028E334E007C0208131812639314020F449
:100A900026E931E020833183FC01E25DFF4D808156
:100AA00091810895EAE2F0E21082118212821382AB
:100AB0000895AF92BF92CF92DF92EF92FF920F9381
:100AC0001F93CF93DF931F92CDB7DEB75C0169838D
:100AD0000E9452056981611178C080E090E0A816FB
:100AE000B906E4F020912A2030912B202F5F3F4F50
:100AF00020932A2030932B2020912C2030912D20E0
:100B00002F5F3F4F20932C2030932D20EFE3FFE108
:100B10003197F1F700C000000196E1CF8501045044
:100B20001109F4E0AF0EB11C80914620909147204E
:100B30008017910794F5E0910220F09103208081C5
:100B4000813021F442E060E270E206C080818230B0
:100B500069F442E06EE170E280E60E948C0182302E
:100B600029F0809105068062809305062091462039
:100B700030914720809142209091432028173907D7
:100B800099F62091482030914920809144209091FD
:100B900045202817390741F6A3C18091462090913E
:100BA0004720A816B9063CF2809148209091492030
:100BB000801791070CF4BFCF809148209091492075
:100BC000A816B9060CF4B7CF8BC1613009F084C008
:100BD00080E090E0A816B906E4F020912A20309138
:100BE0002B202F5F3F4F20932A2030932B202091E2
:100BF0002C2030912D202150310920932C2030932E
:100C00002D20EFE3FFE13197F1F700C000000196DE
:100C1000E1CF7501F4E0EF1AF108650124E0C20E9E
:100C2000D11C05E010E00A191B098BEF9FEFFC01B6
:100C3000EA19FB095F0180914620909147208E15AB
:100C40009F0594F5E0910220F0910320808181308E
:100C500021F442E060E270E206C08081823069F4F3
:100C600042E06EE170E280E60E948C01823029F061
:100C70008091050680628093050620914620309180
:100C8000472080914220909143202817390799F6F8
:100C90002091482030914920809144209091452016
:100CA0002817390741F61CC18091462090914720B2
:100CB000C816D9063CF280914820909149208017AF
:100CC00091070CF0BFCF8091482090914920A81641
:100CD000B9060CF0B7CF04C1623009F084C080E0DF
:100CE00090E0A816B906E4F020912A2030912B203C
:100CF0002150310920932A2030932B2020912C2041
:100D000030912D202F5F3F4F20932C2030932D20AA
:100D1000EFE3FFE13197F1F700C000000196E1CF6A
:100D20007501F4E0EF1AF108650124E0C20ED11C50
:100D300005E010E00A191B098BEF9FEFFC01EA198F
:100D4000FB095F0180914820909149208E159F05F5
:100D500094F5E0910220F09103208081813021F40C
:100D600042E060E270E206C08081823069F442E0D5
:100D70006EE170E280E60E948C01823029F0809161
:100D80000506806280930506209146203091472019
:100D900080914220909143202817390799F620919D
:100DA0004820309149208091442090914520281777
:100DB000390741F695C08091482090914920C81686
:100DC000D9063CF2809146209091472080179107E8
:100DD0000CF0BFCF8091462090914720A816B9060D
:100DE0000CF0B7CF7DC0633009F07AC080E090E0AE
:100DF000A816B906E4F020912A2030912B2021502A
:100E0000310920932A2030932B2020912C203091DF
:100E10002D202150310920932C2030932D20EFE3F9
:100E2000FFE13197F1F700C000000196E1CF05E046
:100E300010E00A191B098BEF9FEF7C01EA18FB08F1
:100E400080914620909147208017910794F1E0917E
:100E50000220F09103208081813021F442E060E2A1
:100E600070E206C08081823069F442E06EE170E297
:100E700080E60E948C01823029F080910506806214
:100E80008093050620914620309147208091422092
:100E9000909143202817390799F6209148203091E6
:100EA000492080914420909145202817390741F628
:100EB00017C08091462090914720E816F9063CF62D
:100EC0008091482090914920801791070CF0BFCF66
:100ED0008091482090914920E816F9060CF0B7CF90
:100EE0000F90DF91CF911F910F91FF90EF90DF90C6
:100EF000CF90BF90AF900895809136209091372089
:100F0000181619061CF580914620909147202091D3
:100F1000482030914920821B930B9C0129513C4F62
:100F2000273E334030F4809138209091392001974A
:100F300009C00197873E934048F4809138209091F2
:100F40003920019680933820909339200895E0EA63
:100F5000F6E080818F638083E0E0FBE083EF8183B4
:100F60002EEA37E226A337A385E08083E0E4FBE0A6
:100F700093E3918326A337A380830895E0E0F9E00B
:100F800083E0818386838BE291E086A397A385E04B
:100F9000808308951F920F920FB60F92112408B606
:100FA0000F9218BE09B60F9219BE0AB60F921ABE5A
:100FB0000BB60F921BBE2F933F934F935F936F938C
:100FC0007F938F939F93AF93BF93CF93DF93EF93D1
:100FD000FF93E0910020F091012080818230D1F4D4
:100FE000C0910A20D0910B2080912A2090912B2033
:100FF00060E00E94E10388839983C0910820D0912A
:10100000092080912C2090912D2061E00E94E10325
:1010100088839983FF91EF91DF91CF91BF91AF9139
:101020009F918F917F916F915F914F913F912F9100
:101030000F900BBE0F900ABE0F9009BE0F9008BE16
:101040000F900FBE0F901F901895E0E6F6E080819C
:1010500080618083E0E4F9E083E1818383E086833B
:101060008EEA97E286A397A385E08083E0910A2029
:10107000F0910B2089EE92E08083918308951F9276
:101080000F920FB60F92112408B60F9218BE09B630
:101090000F9219BE0AB60F921ABE0BB60F921BBE64
:1010A0002F933F934F935F936F937F938F939F9370
:1010B000AF93BF93CF93DF93EF93FF93809146203D
:1010C000909147202091422030914320821B930B26
:1010D00080933E2090933F2080914620909147201E
:1010E0008093422090934320E0910020F0910120D2
:1010F0008081813049F4C0910A20D0910B2080E09A
:101100000E94D60488839983FF91EF91DF91CF915C
:10111000BF91AF919F918F917F916F915F914F910F
:101120003F912F910F900BBE0F900ABE0F9009BEFA
:101130000F9008BE0F900FBE0F901F901895E0E81B
:10114000F6E0808188608083E0E0FAE083E88183D4
:1011500083E086838EEA97E286A397A385E0808367
:10116000E0910820F091092089EE92E0808391833C
:1011700008951F920F920FB60F92112408B60F9286
:1011800018BE09B60F9219BE0AB60F921ABE0BB658
:101190000F921BBE2F933F934F935F936F937F9359
:1011A0008F939F93AF93BF93CF93DF93EF93FF936F
:1011B00080914820909149202091442030914520F1
:1011C000821B930B80934020909341208091482074
:1011D000909149208093442090934520E0910020F5
:1011E000F09101208081813041F4C0910820D0919C
:1011F00009200E94D60488839983FF91EF91DF91A3
:10120000CF91BF91AF919F918F917F916F915F919E
:101210004F913F912F910F900BBE0F900ABE0F90F0
:1012200009BE0F9008BE0F900FBE0F901F9018952B
:10123000E0E4F6E088E0828782E0838B818583604A
:101240008187E0EAF0E082818760828308951F92BF
:101250000F920FB60F92112408B60F9218BE0BB65C
:101260000F921BBE8F93EF93FF93E0910220F091BA
:1012700003208081833011F4108203C080818F5F4E
:101280008083FF91EF918F910F900BBE0F9008BE5E
:101290000F900FBE0F901F901895E0E6F6E084E0E7
:1012A0008287128A818583608187E0EAF0E082810B
:1012B0008760828308951F920F920FB60F921124B8
:1012C00008B60F9218BE0BB60F921BBE2F933F931A
:1012D0008F939F93EF93FF93E0910620F091072067
:1012E000808182FD04C0808183FD04C00AC08081AA
:1012F00083FD07C0F8948091462090914720019685
:1013000006C0F894809146209091472001978093E1
:1013100046209093472078948091462090914720D2
:1013200081309D4739F080914620909147208F3F32
:10133000924891F48091462090914720209142203C
:1013400030914320821B930B80934620909347203B
:101350001092422010924320FF91EF919F918F9124
:101360003F912F910F900BBE0F9008BE0F900FBEB4
:101370000F901F901895E0E8F6E084E08287128ACB
:10138000818583608187E0EAF0E0828187608283E3
:1013900008951F920F920FB60F92112408B60F9264
:1013A00018BE0BB60F921BBE2F933F938F939F9344
:1013B000EF93FF93E0910420F0910520808182FD5E
:1013C00004C0808184FD04C00AC0808184FD07C000
:1013D000F8948091482090914920019706C0F89494
:1013E00080914820909149200196809348209093C5
:1013F00049207894809148209091492081309D47E0
:1014000039F080914820909149208F3F924891F483
:10141000809148209091492020914420309145208E
:10142000821B930B80934820909349201092442074
:1014300010924520FF91EF919F918F913F912F91B5
:101440000F900BBE0F9008BE0F900FBE0F901F9015
:101450001895E0910C20F0910D2088E092E08083B7
:101460009183E0911620F09117208BE792E0808322
:101470009183E0911420F091152083ED94E0808316
:101480009183E0911220F09113208BEA94E0808305
:101490009183E0911020F091112080E392E080830D
:1014A0009183E0910E20F0910F208EEE92E08083E8
:1014B00091830895FC01808191816817790790F4E8
:1014C000808191816817790760F48081918101970B
:1014D000808391838FE39CE90197F1F700C00000BE
:1014E000EFCF0895808191818617970760F48081FE
:1014F00091810196808391838FE39CE90197F1F7B5
:1015000000C00000EFCF0895CF93DF93EC01C959DD
:10151000DD4FC53843E0D40738F4C03981E0D8073F
:1015200028F4C0E9D1E002C0C4E8D3E06AE273E085
:1015300080911220909113200E945A0A60E273E079
:1015400080911020909111200E945A0AE0910C2065
:10155000F0910D2084E893E08083918360E273E052
:1015600080911420909115200E945A0A64E472E040
:1015700080911020909111200E945A0ABE01809102
:101580001620909117200E945A0A26E02C9FC00135
:101590002D9F900D112465E070E00E94970F8091BF
:1015A0000E2090910F200E945A0A6CE672E0809102
:1015B0001020909111200E945A0A68E572E08091F3
:1015C0001420909115200E945A0AE0910C20F0916D
:1015D0000D208EEF91E08083918360E273E0809133
:1015E0001420909115200E945A0A60E273E08091C5
:1015F0001020909111200E945A0A809116209091FB
:101600001720FC01208131812B37324021F06BE71C
:1016100072E00E945A0A63ED74E080911420909168
:1016200015200E945A0A6BEA74E080911220909172
:1016300013200E945A0A6EEE72E080910E20909163
:101640000F20DF91CF910C945A0A64E873E08091E7
:101650001220909113200E945A0A68EE73E0809144
:101660001020909111200E945A0A60E273E080914C
:101670001420909115200E945A0A64EF71E0809125
:101680001220909113200E945A0A66EB73E0809119
:101690000C2090910D200E945A0A2FEF87EA91E6C4
:1016A000215080409040E1F700C0000068E072E007
:1016B00080910C2090910D200E945A0A60E372E004
:1016C00080911020909111200E945A0A64E873E0E2
:1016D00080911220909113200E945A0A63ED74E0C9
:1016E00080911420909115200E945A0A6BEA74E0B0
:1016F00080911220909113200C945A0A6BE772E0AB
:1017000080911620909117200E945A0A63ED74E090
:1017100080911420909115200E945A0A6BEA74E07F
:1017200080911220909113200E945A0A60E372E087
:1017300080911020909111200E945A0A6EEE72E062
:1017400080910E2090910F200E945A0A68E072E06A
:1017500080910C2090910D200C945A0AA6E4B0E2DE
:101760001D921C921197E2E4F0E21082118212960F
:101770001D921C921397128213820895442369F0DC
:10178000FB01E40FF11DDF0111979C91891730F4E3
:10179000442321F090834150F3CFFB0180830895CF
:1017A0000F931F93CF93DF93082F14E1C0E0D0E095
:1017B000802F0E94C203C80FD11D1150C9F7CE015E
:1017C00064E170E00E94970F862FDF91CF911F9107
:1017D0000F9108950F931F93CF93DF93CDB7DEB78B
:1017E0006497CDBFDEBF082F10E0802F0E94C20398
:1017F000412FBE016F5F7F4F0E94BE0B1F5F1431F0
:10180000A1F72A858B8590E0820F911D959587958C
:101810006496CDBFDEBFDF91CF911F910F910895E8
:10182000CF93DF93EC01C959DD4FC53883E0D8076A
:1018300038F4C03981E0D80728F4C0E9D1E002C00B
:10184000C4E8D3E0BE0180911620909117200E9439
:101850005A0A26E02C9FC0012D9F900D112465E0AF
:1018600070E00E94970F80910E2090910F20DF91E1
:10187000CF910C945A0ACF93DF931F92CDB7DEB766
:101880000E94320180E7809301060E945D010E9460
:1018900044010E944903682E0E9418090E944D09C4
:1018A0000E94BB090E94BE070E9425080E949F0853
:1018B0000E94A70778940E94290A812C912C312C30
:1018C00014E8A12E13E0B12E05E0E02EF12C80E10A
:1018D000282E772473940AE010E096EFC92EDD24B9
:1018E000DA94E0910220F09103208081811118C0E8
:1018F00042E062E270E280E60E948C01823029F0D0
:101900008091050680628093050680E78093060635
:10191000E0910220F091032080818823E9F3E1CF58
:101920008081813009F04DC180E28093060642E05B
:1019300060E270E280E60E948C018230C9F1809101
:10194000050680628093050633C0508081E05812FE
:10195000C8CF25E06212F9CF0E94AE0B8FEF93ED56
:1019600020E3815090402040E1F700C00000009348
:101970003620109337200093382010933920E091BF
:101980000020F09101205082E0910220F09103208C
:101990008081813091F0E0910020F09101207082EF
:1019A0001092362010923720109238201092392051
:1019B000E0910220F0910320C8CF311033C087E2BC
:1019C0000E94C203883C58F42092050610923620EB
:1019D0001092372010923820109239201CC086E2D5
:1019E0000E94C203883C80F320920606DBC08091EF
:1019F000402090914120892B09F4A9C042E060E287
:101A000070E280E60E948C01823029F08091050608
:101A100080628093050680913E2090913F20892B23
:101A200031F3ECCF81E038123AC088E20E94C20361
:101A3000893C50F00E94AE0BE0910020F091012013
:101A400082E0808361E00EC085E20E94C203893C8F
:101A5000A8F00E94AE0BE0910020F091012082E0FE
:101A6000808362E08AEA95E00E945905E0910020B7
:101A7000F09101203082B2E03B2E94C084E20E94BB
:101A8000C203893C08F463C0C0923620D09237204C
:101A9000C0923820D0923920A3E03A2E83C092E041
:101AA000391213C02FEF83ED90E321508040904016
:101AB000E1F700C000000093362010933720009318
:101AC000382010933920312C6DC023E032126AC0C7
:101AD00088E20E94C203893C48F01092362010929E
:101AE0003720109238201092392013C085E20E94CE
:101AF000C203893C90F72EC042E060E270E280E6CB
:101B00000E948C01823029F08091050680628093CA
:101B1000050680913E2090913F20892B69F78091A6
:101B2000402090914120892B39F70E94AE0BE09123
:101B30000020F091012082E0808363E08CEB92E052
:101B40000E945905E0910020F09101207082332419
:101B5000339428C084E20E94C203883C18F5109296
:101B6000362010923720109238201092392084E2CB
:101B70000E94C203893C70F442E060E270E280E6B9
:101B80000E948C01823099F38091050680628093D7
:101B90000506EDCFC0923620D0923720C092382073
:101BA000D092392042E060E270E280E60E948C012F
:101BB000823009F4E9CE80910506806280930506A3
:101BC000E3CE8081823009F00EC1E0910020F091D7
:101BD0000120708210923620109237201092382007
:101BE0001092392080E28093060642E06EE170E2B6
:101BF00080E60E948C01823029F080910506806287
:101C00008093050695E0691611F0312C6ACE0E948A
:101C1000AE0B2FEF83ED90E3215080409040E1F731
:101C200000C0000000933620109337200093382026
:101C300010933920E0910020F09101207082312C26
:101C4000F2E05F2EE0910220F0910320808182304B
:101C500009F0BBC0311027C087E20E94C20384365E
:101C600058F42092050610923620109237201092D8
:101C700038201092392008C086E20E94C2038436C0
:101C800080F320920606DECF80913E2090913F2087
:101C9000892BD1F78091402090914120892BA1F789
:101CA00033243394CFCF21E0321259C086E290E042
:101CB0000E94EA0B982E87E290E00E94EA0B282F00
:101CC00030E0492D50E08E3618F08DE6891520F071
:101CD000C901841B950B07C0241B350BC901880F54
:101CE000991F820F931FB7010E94AB0F4B01CB01CD
:101CF0000E94840A0E94AE0B9FEF23ED80E3915077
:101D000020408040E1F700C00000E0910020F09109
:101D10000120508261E08AEA95E00E9459050E9404
:101D2000AE0B61E08AEA95E00E945905E09100203F
:101D3000F091012070829FEF23ED80E391502040CD
:101D40008040E1F700C00000009336201093372058
:101D5000009338201093392072E0372E73CF92E031
:101D6000391270CF87E20E94C203823858F4209261
:101D700005061092362010923720109238201092CB
:101D8000392006C086E20E94C203823880F35ACF0F
:101D900080913E2090913F20892BD1F78091402067
:101DA00090914120892BA1F72FEF87EA91E62150EE
:101DB00080409040E1F700C000000E94250BE091B8
:101DC0000220F091032010823DCFE0910020F0919D
:101DD0000120708210923620109237201092382005
:101DE000109239207ECD8081833009F07ACD42E097
:101DF0006CE170E280E60E948C01823029F08091D3
:101E0000050680628093050680E7809306062FEF23
:101E100083ED90E3215080409040E1F700C0000046
:101E20006AE273E080911220909113200E945A0A76
:101E300068E572E080911020909111200E945A0A6A
:101E4000E0910C20F0910D20A082B1826EE972E049
:101E500080911420909115200E945A0A64E672E045
:101E600080911620909117200E945A0A50E5552E15
:101E700060E4462EE0910220F091032080818330BF
:101E800009F052C087E20E94C203893670F486E2EC
:101E900090E00E94EA0B282F87E290E029830E94BD
:101EA000EA0B29818E3688F02EC086E20E94C2039A
:101EB000893668F3509206066BE772E0809116202F
:101EC000909117200E945A0AD5CF90E0422F50E0FF
:101ED0002E3670F450920506841B950B9C01220F40
:101EE000331F820F931FB7010E94AB0F4B0118C025
:101EF000841B950BB7010E94AB0F4B012092050686
:101F0000409206060DC02E3658F490E0821B9109CF
:101F1000B7010E94AB0F4B014092050620920606C6
:101F2000C4010E94100CA6CF0E947E0BDACCAA1B23
:101F3000BB1B51E107C0AA1FBB1FA617B70710F0B4
:101F4000A61BB70B881F991F5A95A9F780959095E6
:101F5000BC01CD01089597FB072E16F4009407D01D
:101F600077FD09D00E94970F07FC05D03EF49095AD
:101F700081959F4F0895709561957F4F0895F894CE
:021F8000FFCF91
:101F820024202520880668062E0A6809280B2C0BB7
:101F92002E0B2A0B6A0B680B8C04940406010611A3
:041FA2000605061515
:00000001FF
