:100000000C94FA000C941E010C944D040C941E01E7
:100010000C941E010C941E010C941E010C941E01E4
:100020000C941E010C941E010C941E010C941E01D4
:100030000C941E010C941E010C941E010C941E01C4
:100040000C941E010C941E010C941E010C941E01B4
:100050000C941E010C941E010C941E010C941E01A4
:100060000C941E010C941E010C941E010C941E0194
:100070000C941E010C941E010C941E010C941E0184
:100080000C941E010C941E010C941E010C941E0174
:100090000C941E010C941E010C941E010C941E0164
:1000A0000C941E010C941E010C941E010C94CB04A4
:1000B0000C941E010C941E010C941E010C941E0144
:1000C0000C941E010C941E010C941E010C941E0134
:1000D0000C941E010C941E010C941E010C941E0124
:1000E0000C941E010C941E010C941E010C941E0114
:1000F0000C941E010C941E010C941E010C941E0104
:100100000C9481040C941E010C941E010C941E018D
:100110000C941E010C941E010C941E010C941E01E3
:100120000C941E010C941E010C941E010C941E01D3
:100130000C941E010C94E5030C941E010C941E01FA
:100140000C941E010C941E010C941E010C941E01B3
:100150000C941E010C941E010C941E010C941E01A3
:100160000C941E010C941E010C941E010C941E0193
:100170000C941E010C941E010C941E010C941E0183
:100180000C941E010C941E010C941E010C941E0173
:100190000C941E010C941E010C941E010C941E0163
:1001A0000C941E010C941E010C941E010C941E0153
:1001B0000C941E010C941E010C941E010C941E0143
:1001C0000C941E010C941E010C941E010C941E0133
:1001D0000C941E010C941E010C941E010C941E0123
:1001E0000C941E010C941E010C941E010C941E0113
:1001F0000C941E0111241FBECFEFCDBFDFE2DEBF86
:1002000018BE19BE1ABE1BBE10E2A0E0B0E2EAE5BD
:10021000FBE000E00BBF02C007900D92AE30B107CB
:10022000D9F71BBE20E2AEE0B0E201C01D92AB34B4
:10023000B207E1F70E942A050C94AB050C9400006C
:10024000809150008260809350008091510081FF26
:10025000FCCF88ED84BF80914000887F81608093CF
:100260004000089580E780930106089585E6809315
:100270008B0488E0809388040895E0910C20F0912D
:100280000D20808186FFFDCF808181FD55C0F894CF
:1002900083E08093890440E050E0E3E0F2E0F894EA
:1002A000A0910C20B0910D208C9187FFFDCF209163
:1002B0008C04E0938904A0910C20B0910D208C91C6
:1002C00087FFFDCF80918C0430E090E043305105F2
:1002D00089F0E09389044130510579F042305105AD
:1002E000A1F0722F6627682B792B609349207093B9
:1002F0004A2003C0F093890410C0722F6627682B30
:10030000792B6093472070934820722F6627682BC3
:10031000792B6093452070934620322F2227822B21
:10032000932B80931220909313204F5F5F4F4430A4
:10033000510509F0B4CF33C0808181FF31C0F894FA
:1003400083E080938904E0910C20F0910D2080815E
:1003500087FFFDCFE0910A20F0910B2080911420BF
:10036000808383E080938904E0910C20F0910D203C
:10037000808187FFFDCFE0910A20F0910B208091D2
:100380001520808383E080938904E0910C20F09114
:100390000D20808187FFFDCF86E0809389047894CB
:1003A0000895CF93DF9300D0CDB7DEB789839A83CA
:1003B00089819A81FB01908389819A8181830F9041
:1003C0000F90DF91CF9108950F931F93CF93DF93F9
:1003D000CDB7DEB76697CDBFDEBF20913920309113
:1003E0003A202D8B3E8B2D893E89821B930B092E43
:1003F000000CAA0BBB0B89839A83AB83BC838981D6
:100400009A81AB81BC812091412030914220820FA2
:10041000931F80934120909342208091412090919E
:100420004220813991401CF080E991E009C080911F
:1004300041209091422080379E4F34F480E79EEF18
:10044000809341209093422089819A81AB81BC8125
:100450008D879E87AF87B88B1D821E821F8218866C
:100460008D899E8920913D2030913E20821B930BE7
:1004700024E0880F991F2A95E1F7092E000CAA0B9A
:10048000BB0B89879A87AB87BC878D899E898093B0
:100490003D2090933E200D851E852F8538898D81C6
:1004A0009E81AF81B88549855A856B857C85800F93
:1004B000911FA21FB31F841B950BA60BB70B898B33
:1004C0009A8BAB8BBC8B89899A89AB89BC891816AE
:1004D00019061A061B064CF489899A89AB89BC89CE
:1004E0008D509D4FAF4FBF4F1FC089899A89AB89EF
:1004F000BC89892B8A2B8B2B49F489899A89AB89F2
:10050000BC8987519D4FAF4FBF4F0EC089899A89D3
:10051000AB89BC89B7FF0CC089899A89AB89BC8932
:1005200086529D4FAF4FBF4F898B9A8BAB8BBC8B45
:1005300089899A89AB89BC8989339440A105B10521
:100540002CF088E394E0A0E0B0E00DC089899A899E
:10055000AB89BC8986399140A105B10544F486E98F
:1005600091E0A0E0B0E0898B9A8BAB8BBC8B898942
:100570009A89AB89BC896696CDBFDEBFDF91CF91EA
:100580001F910F9108950F931F93CF93DF93CDB7D2
:10059000DEB76697CDBFDEBF20913B2030913C2077
:1005A0002D8B3E8B2D893E89821B930B092E000CCF
:1005B000AA0BBB0B89839A83AB83BC8389819A8105
:1005C000AB81BC812091432030914420820F931F46
:1005D0008093432090934420809143209091442025
:1005E000813991401CF080E991E009C0809143205D
:1005F0009091442080379E4F34F480E79EEF8093A3
:1006000043209093442069817A818B819C8124E0EE
:1006100030E040E050E00E946A052D873E874F871A
:10062000588B1D821E821F8218862D893E898091DB
:100630003F2090914020281B390B4AE0429FC00187
:10064000439F900D1124092E000CAA0BBB0B898728
:100650009A87AB87BC878D899E8980933F20909332
:1006600040200D851E852F8538898D819E81AF8123
:10067000B88549855A856B857C85800F911FA21F9F
:10068000B31F841B950BA60BB70B898B9A8BAB8B77
:10069000BC8B89899A89AB89BC89181619061A06F8
:1006A0001B064CF489899A89AB89BC898D509D4F72
:1006B000AF4FBF4F1FC089899A89AB89BC89892BED
:1006C0008A2B8B2B49F489899A89AB89BC898751FC
:1006D0009D4FAF4FBF4F0EC089899A89AB89BC89A6
:1006E000B7FF0CC089899A89AB89BC8986529D4F16
:1006F000AF4FBF4F898B9A8BAB8BBC8B89899A8903
:10070000AB89BC8989339440A105B1052CF088E3FD
:1007100094E0A0E0B0E00DC089899A89AB89BC89DA
:1007200086399140A105B10544F486E991E0A0E045
:10073000B0E0898B9A8BAB8BBC8B89899A89AB890A
:10074000BC896696CDBFDEBFDF91CF911F910F911F
:100750000895E0E6F6E0808180618083E0E4F9E0DE
:1007600083E181838EEA97E286A397A385E0808365
:10077000E0910820F091092089EE92E08083918336
:100780000895E0E8F6E0808188608083E0E0FAE0A8
:1007900083E881838EEA97E286A397A385E080832E
:1007A000E0910620F091072089EE92E0808391830A
:1007B0000895E0E0F9E083E08183868383EF91E0B0
:1007C00086A397A385E0808308951F920F920FB6AA
:1007D0000F92112408B60F9218BE09B60F9219BED7
:1007E0000AB60F921ABE0BB60F921BBE2F933F9301
:1007F0004F935F936F937F938F939F93AF93BF9329
:10080000CF93DF93EF93FF93E0910020F0910120CD
:1008100080818130C1F4C0910620D0910720809161
:100820001020909111200E94C30288839983C09167
:100830000820D091092080910E2090910F200E94D5
:10084000E40188839983FF91EF91DF91CF91BF916C
:10085000AF919F918F917F916F915F914F913F9158
:100860002F910F900BBE0F900ABE0F9009BE0F90F4
:1008700008BE0F900FBE0F901F901895E0E4F6E0B1
:1008800088E0828782E0838B818583608187E0EACC
:10089000F0E082818760828308951F920F920FB6E5
:1008A0000F92112408B60F9218BE0BB60F921BBE02
:1008B0008F93EF93FF93E0910020F09101208081CE
:1008C000813011F4108203C080818F5F8083FF919B
:1008D000EF918F910F900BBE0F9008BE0F900FBE3F
:1008E0000F901F901895E0E6F6E084E08287128A68
:1008F000818583608187E0EAF0E08281876082837E
:1009000008951F920F920FB60F92112408B60F92FE
:1009100018BE0BB60F921BBE8F939F93EF93FF935E
:10092000E0910420F0910520808182FD04C0808147
:1009300083FD04C00AC0808183FD07C0F8948091C4
:10094000392090913A20019606C0F8948091392080
:1009500090913A2001978093392090933A2078948F
:10096000FF91EF919F918F910F900BBE0F9008BE5A
:100970000F900FBE0F901F901895E0E8F6E084E00E
:100980008287128A818583608187E0EAF0E0828134
:100990008760828308951F920F920FB60F921124E1
:1009A00008B60F9218BE0BB60F921BBE8F939F9383
:1009B000EF93FF93E0910220F0910320808182FD6C
:1009C00004C0808184FD04C00AC0808184FD07C00A
:1009D000F89480913B2090913C20019706C0F894B8
:1009E00080913B2090913C20019680933B209093F6
:1009F0003C207894FF91EF919F918F910F900BBEC7
:100A00000F9008BE0F900FBE0F901F90189520E01A
:100A100030E082179307ECF040910E2050910F20A8
:100A20004F5F5F4F40930E2050930F204091102056
:100A300050911120415051094093102050931120A2
:100A4000EFE7FEE33197F1F700C000002F5F3F4F63
:100A5000E0CF08950E94200180E7809301060E9464
:100A60003E040E9473040E94BD040E94A9030E94D8
:100A7000C1030E94D9037894C0E610E4D0E1E0916C
:100A80000020F09101208081882319F0813031F01D
:100A9000FACFC093060680818823E9F3C093060647
:100AA0001093050688EE93E00E940705E091002070
:100AB000F09101208081813011F78091392090914F
:100AC0003A20883E934019F4D0930506F3CFD09393
:100AD0000606F0CF052E97FB1EF400940E948105B8
:100AE00057FD07D00E94890507FC03D04EF40C94F3
:100AF000810550954095309521953F4F4F4F5F4F61
:100B0000089590958095709561957F4F8F4F9F4F79
:100B10000895A1E21A2EAA1BBB1BFD010DC0AA1F3E
:100B2000BB1FEE1FFF1FA217B307E407F50720F056
:100B3000A21BB30BE40BF50B661F771F881F991FD1
:100B40001A9469F760957095809590959B01AC011A
:0A0B5000BD01CF010895F894FFCF16
:0E0B5A001620880668062E0A68098C048A0494
:00000001FF
