:100000000C94FA000C941E010C941E010C941E0119
:100010000C941E010C941E010C941E010C941E01E4
:100020000C941E010C941E010C941E010C941E01D4
:100030000C941E010C941E010C941E010C941E01C4
:100040000C941E010C941E010C941E010C941E01B4
:100050000C941E010C941E010C941E010C941E01A4
:100060000C941E010C941E010C941E010C941E0194
:100070000C941E010C941E010C941E010C941E0184
:100080000C941E010C941E010C941E010C941E0174
:100090000C941E010C941E010C941E010C941E0164
:1000A0000C941E010C941E010C941E010C941E0154
:1000B0000C941E010C941E010C941E010C941E0144
:1000C0000C941E010C941E010C941E010C941E0134
:1000D0000C941E010C941E010C941E010C941E0124
:1000E0000C941E010C941E010C941E010C941E0114
:1000F0000C941E010C941E010C941E010C941E0104
:100100000C941E010C941E010C941E010C941E01F3
:100110000C941E010C941E010C941E010C941E01E3
:100120000C941E010C941E010C941E010C941E01D3
:100130000C941E010C941E010C941E010C941E01C3
:100140000C941E010C941E010C941E010C941E01B3
:100150000C941E010C941E010C941E010C941E01A3
:100160000C941E010C941E010C941E010C941E0193
:100170000C941E010C941E010C941E010C941E0183
:100180000C941E010C941E010C941E010C941E0173
:100190000C941E010C941E010C941E010C941E0163
:1001A0000C941E010C941E010C941E010C941E0153
:1001B0000C941E010C941E010C941E010C941E0143
:1001C0000C941E010C941E010C941E010C941E0133
:1001D0000C941E010C941E010C941E010C941E0123
:1001E0000C941E010C941E010C941E010C941E0113
:1001F0000C941E0111241FBECFEFCDBFDFE2DEBF86
:1002000018BE19BE1ABE1BBE10E2A0E0B0E2ECEEB2
:10021000F9E000E00BBF02C007900D92A830B107D3
:10022000D9F71BBE20E2A8E0B0E201C01D92A032C7
:10023000B207E1F70E9499040C94F4040C940000B6
:10024000809150008260809350008091510081FF26
:10025000FCCF88ED84BF80914000887F81608093CF
:100260004000089580E7809301060895E0EEF6E0EF
:100270008FE3818380898863808B81898863818B08
:1002800082898863828B83898863838B848988636E
:10029000848B85898863858B0895880F8093960465
:1002A000E0910620F0910720808186FFFDCF9081AC
:1002B000892F807194FF05C083E08093930481E0CF
:1002C000089593E0909393040895E0E6F6E088E3C0
:1002D000808B818B88E28093950488E080939104E1
:1002E00081E0809394048FE39CE90197F1F700C0CB
:1002F0000000089585E680938B0488E0809388044D
:100300000895982F990F9093960480E0E09106202D
:10031000F09107208417A8F4208126FFFDCF2081CB
:1003200024FD15C0208124FD08C0FB01E80FF11D4C
:100330002081209397048F5FE9CF808180FFFDCFDC
:10034000E2CF908196FFFDCF93E0909393040895C0
:10035000880F816080939604FB0180E090E050E07C
:100360009A012150310967E084179507BCF4A091E8
:100370000620B09107207C9177FFFDCF7C9174FD22
:100380000DC07091970471930196821793071CF426
:1003900010929304E9CF60939304E6CF0895CF932E
:1003A000DF9300D01F92CDB7DEB779836A834B838A
:1003B00043E0BE016F5F7F4F0E948101833029F0CF
:1003C000809105068062809305062396CDBFDEBF2F
:1003D000DF91CF9108951F93CF93DF9300D01F92A9
:1003E000CDB7DEB7182F1B8279836A8342E0BE0146
:1003F0006F5F7F4F0E948101823049F441E0BE016E
:100400006D5F7F4F812F0E94A801813029F080917C
:1004100005068062809305068B812396CDBFDEBFE3
:10042000DF91CF911F910895CF93C82F41E067E0EE
:1004300072E00E94CF0141E068E072E08C2F0E94E0
:10044000CF0140E066E970E08C2F0E94CF014DEFB4
:1004500067E970E08C2F0E94CF0140E063EE70E00E
:100460008C2F0E94CF0144E064EE70E08C2F0E943C
:10047000CF0142E065EE70E08C2F0E94CF0141E099
:1004800066EE70E08C2F0E94CF0143E067EE70E0D3
:100490008C2F0E94CF0142E065EF70E08C2F0E940C
:1004A000CF0145E069ED70E08C2F0E94CF014EEC4A
:1004B0006BED70E08C2F0E94CF0143E06CED70E09B
:1004C0008C2F0E94CF0148EF6DED70E08C2F0E94C1
:1004D000CF0140E06FE970E08C2F0E94CF014CE328
:1004E00063EA70E08C2F0E94CF0140E067EB70E080
:1004F0008C2F0E94CF014CE36BEB70E08C2F0E949D
:10050000CF0149E062EB70E08C2F0E94CF0149E0FF
:100510006AEC70E08C2F0E94CF0141E068E971E045
:100520008C2F0E94CF0147E160EB71E08C2F0E947D
:10053000CF0140E06DEA71E08C2F0E94CF0145E0D1
:100540006FEF70E08C2F0E94CF0145E060E071E01A
:100550008C2F0E94CF0145E069E971E08C2F0E9449
:10056000CF014BE166EA71E08C2F0E94CF014EE390
:100570006CEA71E08C2F0E94CF014FE167EA71E0D5
:100580008C2F0E94CF0140E060E370E08C2FCF9170
:100590000C94CF01CF93C82F40E161E170E00E943D
:1005A000CF0140E36AE071E08C2F0E94CF0146E466
:1005B0006FE370E08C2F0E94CF014FEF61E370E09A
:1005C0008C2F0E94CF0143E660E470E08C2F0E94E4
:1005D000CF0141E06EE270E08C2F0E94CF0149E034
:1005E0006BE170E08C2F0E94CF0141E36EE370E07D
:1005F0008C2F0E94CF0144E264E170E08C2FCF91F8
:100600000C94CF01CF93C82F8FE39FE10197F1F7AF
:1006100000C0000066E170E08C2F0E94EB01813089
:1006200001F141E060E170E08C2F0E94CF018FE387
:100630009FE10197F1F700C0000066E170E08C2FA8
:100640000E94EB01813069F040E060E170E08C2FA6
:100650000E94CF018FE39FE10197F1F700C00000F6
:10066000E0CF8C2F0E9414028C2F0E94CA0240E01F
:1006700066E170E08C2FCF910C94CF01AF92BF92C6
:10068000CF92DF92FF920F931F93CF93DF931F922E
:10069000CDB7DEB7198200E010E084E2F82ECC245A
:1006A000C394D12C0330110531F18091E506560138
:1006B000002E01C0AA0C0A94EAF78A298093E50665
:1006C0008FE39FE10197F1F700C0000089E20E94EB
:1006D0004D0181110DC089818F5F89834F2D62E1AA
:1006E00072E089E20E94CF018F2D0E94020302C0B6
:1006F000A092E606F3940F5F1F4F0630110591F6A6
:1007000089819981992301F19091050690649093D4
:1007100005069FEF29E638E1915020403040E1F78F
:1007200000C00000909106069064909306069FEF2B
:1007300029E638E1915020403040E1F700C0000048
:10074000998191509983DDCF0F90DF91CF911F91C7
:100750000F91FF90DF90CF90BF90AF900895CF930F
:10076000DF93C82F41E068E170E00E94CF016FE4A1
:1007700070E08C2F0E94EB0182FFF9CF62E670E0FF
:100780008C2F0E94EB01D82F47E065E170E08C2FA1
:100790000E94CF018D2FDF91CF910895E09102202B
:1007A000F0910320808186FFFDCF808181FD04C010
:1007B00083E0809389040895808181FF31C0F8949B
:1007C00083E080938904E0910220F09103208081EE
:1007D00087FFFDCFE0910020F091012080911D2046
:1007E000808383E080938904E0910220F0910320CC
:1007F000808187FFFDCFE0910020F0910120809162
:100800001C20808383E080938904E0910220F09192
:100810000320808187FFFDCF86E080938904789450
:100820000895AC0160E070E080E090E0FA01E60F2E
:10083000F71F2081820F911D6F5F7F4F6A30710516
:10084000A9F70E94CC04862F0895442369F0FB0188
:10085000E40FF11DDF0111979C91891730F44423B7
:1008600021F090834150F3CFFB01808308958F9254
:100870009F92AF92BF92CF92DF92EF92FF920F932F
:100880001F93CF93DF93CDB7DEB7A62EEDB6FEB69E
:10089000C62ED12C2DB73EB72C193D092DBF3EBF1A
:1008A0000DB71EB70F5F1F4F4C01B12CBA1449F0A2
:1008B000F40181914F014B2DB8010E942504B3949E
:1008C000F5CFF801208130E080E061E090E070E059
:1008D000482F082E000C550B4C155D05B4F4F8019B
:1008E000E40FF51F408151819F5F451761F0791733
:1008F00020F4242F30E0792F05C0791303C0240F92
:10090000311D6F5F90E08F5FE3CF70E0C9010E94FF
:10091000E004862FEDBEFEBEDF91CF911F910F91B7
:10092000FF90EF90DF90CF90BF90AF909F908F900F
:1009300008950E94200180E7809301060E943601FD
:100940000E9465010E947A010E943E0380E4809328
:100950000506C0E0D0E087E20E94AF03FE01EE5E34
:10096000FF4D808386E20E94AF03FE01E85FFF4DEA
:1009700080832196CA30D10571F782E190E20E940E
:10098000110480931D2088E090E20E94110480935E
:100990001C200E94CE03DDCFAA1BBB1B51E107C068
:1009A000AA1FBB1FA617B70710F0A61BB70B881FFF
:1009B000991F5A95A9F780959095BC01CD0108958E
:1009C00097FB072E16F4009407D077FD09D00E94FC
:1009D000CC0407FC05D03EF4909581959F4F089577
:0C09E000709561957F4F0895F894FFCF4B
:0809EC008C048A048C049404BD
:00000001FF
