:1000000012C046C07FC01FC01EC01DC01CC01BC088
:100010001AC019C018C017C016C015C014C013C02C
:1000200012C011C010C011241FBECFE5D4E0DEBF46
:10003000CDBF10E0A0E6B0E001C01D92A936B10727
:10004000E1F706D10CC1DCCF611103C080936800D9
:1000500004C0613011F490936800809168000895A5
:1000600086B1836886B90895806487B986B1836450
:1000700086B9349BFECF349A84B195B10895C29A63
:1000800085B78F6085BF8BB7806C8BBF78940895E0
:100090001F920F920FB60F9211242F938F939F935D
:1000A00080B3807180BB811111C0809162009091FA
:1000B00063000197909363008093620080916200D7
:1000C0009091630081309048A9F410C08091620043
:1000D00090916300019690936300809362008091F9
:1000E0006200909163008F3F9F4721F4109263005C
:1000F000109262009F918F912F910F900FBE0F90E1
:100100001F9018951F920F920FB60F9211242F93E4
:100110008F939F9380B3807280BB811111C08091B7
:10012000600090916100019790936100809360005E
:10013000809160009091610081309048A9F410C0D6
:10014000809160009091610001969093610080938E
:10015000600080916000909161008F3F9F4721F483
:1001600010926100109260009F918F912F910F90DB
:100170000FBE0F901F90189584E682B984E486BF65
:100180000895C2E006B607FEFDCFC19A81B1887F0F
:10019000883A01F58091660081110AC0C09366001B
:1001A000809160009091610090936500809364005D
:1001B000809166006C2F681B8091640090916500AF
:1001C00043DF83B98091660081508093660086B7D3
:1001D0008F7B3CC081B1887F803C11F4C19828C0DE
:1001E00081B1887F803621F181B1887F8038E1F448
:1001F00083B1882349F083B1813031F083B18230FB
:1002000019F083B1833011F42FDF07C083B1803B35
:1002100041F4809162009091630090936500809317
:100220006400C093660004C081B1887F803A19F4ED
:1002300086B7806C0BC081B1887F883F09F4A2CF5C
:1002400081B1887F09F09ECF86B7806986BF9ACF3B
:1002500087E087BBC09A04DF8FDF11DF92DFF8945D
:02026000FFCFCE
:00000001FF
